{
  "contractName": "PaymentSplitter",
  "abi": [
    {
      "inputs": [
        {
          "name": "payees",
          "type": "address[]"
        },
        {
          "name": "shares",
          "type": "uint256[]"
        }
      ],
      "payable": true,
      "stateMutability": "payable",
      "type": "constructor"
    },
    {
      "payable": true,
      "stateMutability": "payable",
      "type": "fallback"
    },
    {
      "anonymous": false,
      "inputs": [
        {
          "indexed": false,
          "name": "account",
          "type": "address"
        },
        {
          "indexed": false,
          "name": "shares",
          "type": "uint256"
        }
      ],
      "name": "PayeeAdded",
      "type": "event"
    },
    {
      "anonymous": false,
      "inputs": [
        {
          "indexed": false,
          "name": "to",
          "type": "address"
        },
        {
          "indexed": false,
          "name": "amount",
          "type": "uint256"
        }
      ],
      "name": "PaymentReleased",
      "type": "event"
    },
    {
      "anonymous": false,
      "inputs": [
        {
          "indexed": false,
          "name": "from",
          "type": "address"
        },
        {
          "indexed": false,
          "name": "amount",
          "type": "uint256"
        }
      ],
      "name": "PaymentReceived",
      "type": "event"
    },
    {
      "constant": true,
      "inputs": [],
      "name": "totalShares",
      "outputs": [
        {
          "name": "",
          "type": "uint256"
        }
      ],
      "payable": false,
      "stateMutability": "view",
      "type": "function"
    },
    {
      "constant": true,
      "inputs": [],
      "name": "totalReleased",
      "outputs": [
        {
          "name": "",
          "type": "uint256"
        }
      ],
      "payable": false,
      "stateMutability": "view",
      "type": "function"
    },
    {
      "constant": true,
      "inputs": [
        {
          "name": "account",
          "type": "address"
        }
      ],
      "name": "shares",
      "outputs": [
        {
          "name": "",
          "type": "uint256"
        }
      ],
      "payable": false,
      "stateMutability": "view",
      "type": "function"
    },
    {
      "constant": true,
      "inputs": [
        {
          "name": "account",
          "type": "address"
        }
      ],
      "name": "released",
      "outputs": [
        {
          "name": "",
          "type": "uint256"
        }
      ],
      "payable": false,
      "stateMutability": "view",
      "type": "function"
    },
    {
      "constant": true,
      "inputs": [
        {
          "name": "index",
          "type": "uint256"
        }
      ],
      "name": "payee",
      "outputs": [
        {
          "name": "",
          "type": "address"
        }
      ],
      "payable": false,
      "stateMutability": "view",
      "type": "function"
    },
    {
      "constant": false,
      "inputs": [
        {
          "name": "account",
          "type": "address"
        }
      ],
      "name": "release",
      "outputs": [],
      "payable": false,
      "stateMutability": "nonpayable",
      "type": "function"
    }
  ],
  "bytecode": "0x608060405260405162000f8138038062000f818339810180604052604081101561002857600080fd5b81019080805164010000000081111561004057600080fd5b8281019050602081018481111561005657600080fd5b815185602082028301116401000000008211171561007357600080fd5b5050929190602001805164010000000081111561008f57600080fd5b828101905060208101848111156100a557600080fd5b81518560208202830111640100000000821117156100c257600080fd5b50509291905050508051825114610125576040517f08c379a000000000000000000000000000000000000000000000000000000000815260040180806020018281038252603281526020018062000f246032913960400191505060405180910390fd5b600082511161019c576040517f08c379a000000000000000000000000000000000000000000000000000000000815260040180806020018281038252601a8152602001807f5061796d656e7453706c69747465723a206e6f2070617965657300000000000081525060200191505060405180910390fd5b60008090505b82518110156101ee576101e18382815181106101ba57fe5b60200260200101518383815181106101ce57fe5b60200260200101516101f660201b60201c565b80806001019150506101a2565b50505061054c565b600073ffffffffffffffffffffffffffffffffffffffff168273ffffffffffffffffffffffffffffffffffffffff16141561027d576040517f08c379a000000000000000000000000000000000000000000000000000000000815260040180806020018281038252602c81526020018062000ef8602c913960400191505060405180910390fd5b600081116102f3576040517f08c379a000000000000000000000000000000000000000000000000000000000815260040180806020018281038252601d8152602001807f5061796d656e7453706c69747465723a2073686172657320617265203000000081525060200191505060405180910390fd5b6000600260008473ffffffffffffffffffffffffffffffffffffffff1673ffffffffffffffffffffffffffffffffffffffff168152602001908152602001600020541461038c576040517f08c379a000000000000000000000000000000000000000000000000000000000815260040180806020018281038252602b81526020018062000f56602b913960400191505060405180910390fd5b60048290806001815401808255809150509060018203906000526020600020016000909192909190916101000a81548173ffffffffffffffffffffffffffffffffffffffff021916908373ffffffffffffffffffffffffffffffffffffffff1602179055505080600260008473ffffffffffffffffffffffffffffffffffffffff1673ffffffffffffffffffffffffffffffffffffffff1681526020019081526020016000208190555061044f816000546104c460201b6106d81790919060201c565b6000819055507f40c340f65e17194d14ddddb073d3c9f888e3cb52b5aae0c6c7706b4fbc905fac8282604051808373ffffffffffffffffffffffffffffffffffffffff1673ffffffffffffffffffffffffffffffffffffffff1681526020018281526020019250505060405180910390a15050565b600080828401905083811015610542576040517f08c379a000000000000000000000000000000000000000000000000000000000815260040180806020018281038252601b8152602001807f536166654d6174683a206164646974696f6e206f766572666c6f77000000000081525060200191505060405180910390fd5b8091505092915050565b61099c806200055c6000396000f3fe6080604052600436106100555760003560e01c806319165587146100c25780633a98ef39146101135780638b83209b1461013e5780639852595c146101b9578063ce7c2ac21461021e578063e33b7de314610283575b7f6ef95f06320e7a25a04a175ca677b7052bdd97131872c2192525a629f51be7703334604051808373ffffffffffffffffffffffffffffffffffffffff1673ffffffffffffffffffffffffffffffffffffffff1681526020018281526020019250505060405180910390a1005b3480156100ce57600080fd5b50610111600480360360208110156100e557600080fd5b81019080803573ffffffffffffffffffffffffffffffffffffffff1690602001909291905050506102ae565b005b34801561011f57600080fd5b506101286105f2565b6040518082815260200191505060405180910390f35b34801561014a57600080fd5b506101776004803603602081101561016157600080fd5b81019080803590602001909291905050506105fb565b604051808273ffffffffffffffffffffffffffffffffffffffff1673ffffffffffffffffffffffffffffffffffffffff16815260200191505060405180910390f35b3480156101c557600080fd5b50610208600480360360208110156101dc57600080fd5b81019080803573ffffffffffffffffffffffffffffffffffffffff16906020019092919050505061063c565b6040518082815260200191505060405180910390f35b34801561022a57600080fd5b5061026d6004803603602081101561024157600080fd5b81019080803573ffffffffffffffffffffffffffffffffffffffff169060200190929190505050610685565b6040518082815260200191505060405180910390f35b34801561028f57600080fd5b506102986106ce565b6040518082815260200191505060405180910390f35b6000600260008373ffffffffffffffffffffffffffffffffffffffff1673ffffffffffffffffffffffffffffffffffffffff1681526020019081526020016000205411610346576040517f08c379a00000000000000000000000000000000000000000000000000000000081526004018080602001828103825260268152602001806108ff6026913960400191505060405180910390fd5b60006103746001543073ffffffffffffffffffffffffffffffffffffffff16316106d890919063ffffffff16565b9050600061042f600360008573ffffffffffffffffffffffffffffffffffffffff1673ffffffffffffffffffffffffffffffffffffffff16815260200190815260200160002054610421600054610413600260008973ffffffffffffffffffffffffffffffffffffffff1673ffffffffffffffffffffffffffffffffffffffff168152602001908152602001600020548761076090919063ffffffff16565b6107e690919063ffffffff16565b61087590919063ffffffff16565b9050600081141561048b576040517f08c379a000000000000000000000000000000000000000000000000000000000815260040180806020018281038252602b815260200180610925602b913960400191505060405180910390fd5b6104dd81600360008673ffffffffffffffffffffffffffffffffffffffff1673ffffffffffffffffffffffffffffffffffffffff168152602001908152602001600020546106d890919063ffffffff16565b600360008573ffffffffffffffffffffffffffffffffffffffff1673ffffffffffffffffffffffffffffffffffffffff16815260200190815260200160002081905550610535816001546106d890919063ffffffff16565b6001819055508273ffffffffffffffffffffffffffffffffffffffff166108fc829081150290604051600060405180830381858888f19350505050158015610581573d6000803e3d6000fd5b507fdf20fd1e76bc69d672e4814fafb2c449bba3a5369d8359adf9e05e6fde87b0568382604051808373ffffffffffffffffffffffffffffffffffffffff1673ffffffffffffffffffffffffffffffffffffffff1681526020018281526020019250505060405180910390a1505050565b60008054905090565b60006004828154811061060a57fe5b9060005260206000200160009054906101000a900473ffffffffffffffffffffffffffffffffffffffff169050919050565b6000600360008373ffffffffffffffffffffffffffffffffffffffff1673ffffffffffffffffffffffffffffffffffffffff168152602001908152602001600020549050919050565b6000600260008373ffffffffffffffffffffffffffffffffffffffff1673ffffffffffffffffffffffffffffffffffffffff168152602001908152602001600020549050919050565b6000600154905090565b600080828401905083811015610756576040517f08c379a000000000000000000000000000000000000000000000000000000000815260040180806020018281038252601b8152602001807f536166654d6174683a206164646974696f6e206f766572666c6f77000000000081525060200191505060405180910390fd5b8091505092915050565b60008083141561077357600090506107e0565b600082840290508284828161078457fe5b04146107db576040517f08c379a00000000000000000000000000000000000000000000000000000000081526004018080602001828103825260218152602001806109506021913960400191505060405180910390fd5b809150505b92915050565b600080821161085d576040517f08c379a000000000000000000000000000000000000000000000000000000000815260040180806020018281038252601a8152602001807f536166654d6174683a206469766973696f6e206279207a65726f00000000000081525060200191505060405180910390fd5b600082848161086857fe5b0490508091505092915050565b6000828211156108ed576040517f08c379a000000000000000000000000000000000000000000000000000000000815260040180806020018281038252601e8152602001807f536166654d6174683a207375627472616374696f6e206f766572666c6f77000081525060200191505060405180910390fd5b60008284039050809150509291505056fe5061796d656e7453706c69747465723a206163636f756e7420686173206e6f207368617265735061796d656e7453706c69747465723a206163636f756e74206973206e6f7420647565207061796d656e74536166654d6174683a206d756c7469706c69636174696f6e206f766572666c6f77a165627a7a7230582049d4df0218336968da35afbfc55e46928a4db53ff9242e90f60269e5857f47d200295061796d656e7453706c69747465723a206163636f756e7420697320746865207a65726f20616464726573735061796d656e7453706c69747465723a2070617965657320616e6420736861726573206c656e677468206d69736d617463685061796d656e7453706c69747465723a206163636f756e7420616c72656164792068617320736861726573",
  "source": "pragma solidity 0.5.8;\r\n\r\n\r\n/**\r\n * @dev Wrappers over Solidity's arithmetic operations with added overflow\r\n * checks.\r\n *\r\n * Arithmetic operations in Solidity wrap on overflow. This can easily result\r\n * in bugs, because programmers usually assume that an overflow raises an\r\n * error, which is the standard behavior in high level programming languages.\r\n * `SafeMath` restores this intuition by reverting the transaction when an\r\n * operation overflows.\r\n *\r\n * Using this library instead of the unchecked operations eliminates an entire\r\n * class of bugs, so it's recommended to use it always.\r\n */\r\nlibrary SafeMath {\r\n    /**\r\n     * @dev Returns the addition of two unsigned integers, reverting on\r\n     * overflow.\r\n     *\r\n     * Counterpart to Solidity's `+` operator.\r\n     *\r\n     * Requirements:\r\n     * - Addition cannot overflow.\r\n     */\r\n    function add(uint256 a, uint256 b) internal pure returns (uint256) {\r\n        uint256 c = a + b;\r\n        require(c >= a, \"SafeMath: addition overflow\");\r\n\r\n        return c;\r\n    }\r\n\r\n    /**\r\n     * @dev Returns the subtraction of two unsigned integers, reverting on\r\n     * overflow (when the result is negative).\r\n     *\r\n     * Counterpart to Solidity's `-` operator.\r\n     *\r\n     * Requirements:\r\n     * - Subtraction cannot overflow.\r\n     */\r\n    function sub(uint256 a, uint256 b) internal pure returns (uint256) {\r\n        require(b <= a, \"SafeMath: subtraction overflow\");\r\n        uint256 c = a - b;\r\n\r\n        return c;\r\n    }\r\n\r\n    /**\r\n     * @dev Returns the multiplication of two unsigned integers, reverting on\r\n     * overflow.\r\n     *\r\n     * Counterpart to Solidity's `*` operator.\r\n     *\r\n     * Requirements:\r\n     * - Multiplication cannot overflow.\r\n     */\r\n    function mul(uint256 a, uint256 b) internal pure returns (uint256) {\r\n        // Gas optimization: this is cheaper than requiring 'a' not being zero, but the\r\n        // benefit is lost if 'b' is also tested.\r\n        // See: https://github.com/OpenZeppelin/openzeppelin-solidity/pull/522\r\n        if (a == 0) {\r\n            return 0;\r\n        }\r\n\r\n        uint256 c = a * b;\r\n        require(c / a == b, \"SafeMath: multiplication overflow\");\r\n\r\n        return c;\r\n    }\r\n\r\n    /**\r\n     * @dev Returns the integer division of two unsigned integers. Reverts on\r\n     * division by zero. The result is rounded towards zero.\r\n     *\r\n     * Counterpart to Solidity's `/` operator. Note: this function uses a\r\n     * `revert` opcode (which leaves remaining gas untouched) while Solidity\r\n     * uses an invalid opcode to revert (consuming all remaining gas).\r\n     *\r\n     * Requirements:\r\n     * - The divisor cannot be zero.\r\n     */\r\n    function div(uint256 a, uint256 b) internal pure returns (uint256) {\r\n        // Solidity only automatically asserts when dividing by 0\r\n        require(b > 0, \"SafeMath: division by zero\");\r\n        uint256 c = a / b;\r\n        // assert(a == b * c + a % b); // There is no case in which this doesn't hold\r\n\r\n        return c;\r\n    }\r\n\r\n    /**\r\n     * @dev Returns the remainder of dividing two unsigned integers. (unsigned integer modulo),\r\n     * Reverts when dividing by zero.\r\n     *\r\n     * Counterpart to Solidity's `%` operator. This function uses a `revert`\r\n     * opcode (which leaves remaining gas untouched) while Solidity uses an\r\n     * invalid opcode to revert (consuming all remaining gas).\r\n     *\r\n     * Requirements:\r\n     * - The divisor cannot be zero.\r\n     */\r\n    function mod(uint256 a, uint256 b) internal pure returns (uint256) {\r\n        require(b != 0, \"SafeMath: modulo by zero\");\r\n        return a % b;\r\n    }\r\n}\r\n\r\n/**\r\n * @title PaymentSplitter\r\n * @dev This contract allows to split Ether payments among a group of accounts. The sender does not need to be aware\r\n * that the Ether will be split in this way, since it is handled transparently by the contract.\r\n *\r\n * The split can be in equal parts or in any other arbitrary proportion. The way this is specified is by assigning each\r\n * account to a number of shares. Of all the Ether that this contract receives, each account will then be able to claim\r\n * an amount proportional to the percentage of total shares they were assigned.\r\n *\r\n * `PaymentSplitter` follows a _pull payment_ model. This means that payments are not automatically forwarded to the\r\n * accounts but kept in this contract, and the actual transfer is triggered as a separate step by calling the `release`\r\n * function.\r\n */\r\ncontract PaymentSplitter {\r\n    using SafeMath for uint256;\r\n\r\n    event PayeeAdded(address account, uint256 shares);\r\n    event PaymentReleased(address to, uint256 amount);\r\n    event PaymentReceived(address from, uint256 amount);\r\n\r\n    uint256 private _totalShares;\r\n    uint256 private _totalReleased;\r\n\r\n    mapping(address => uint256) private _shares;\r\n    mapping(address => uint256) private _released;\r\n    address[] private _payees;\r\n\r\n    /**\r\n     * @dev Creates an instance of `PaymentSplitter` where each account in `payees` is assigned the number of shares at\r\n     * the matching position in the `shares` array.\r\n     *\r\n     * All addresses in `payees` must be non-zero. Both arrays must have the same non-zero length, and there must be no\r\n     * duplicates in `payees`.\r\n     */\r\n    constructor (address[] memory payees, uint256[] memory shares) public payable {\r\n        // solhint-disable-next-line max-line-length\r\n        require(payees.length == shares.length, \"PaymentSplitter: payees and shares length mismatch\");\r\n        require(payees.length > 0, \"PaymentSplitter: no payees\");\r\n\r\n        for (uint256 i = 0; i < payees.length; i++) {\r\n            _addPayee(payees[i], shares[i]);\r\n        }\r\n    }\r\n\r\n    /**\r\n     * @dev The Ether received will be logged with `PaymentReceived` events. Note that these events are not fully\r\n     * reliable: it's possible for a contract to receive Ether without triggering this function. This only affects the\r\n     * reliability of the events, and not the actual splitting of Ether.\r\n     *\r\n     * To learn more about this see the Solidity documentation for [fallback functions].\r\n     *\r\n     * [fallback functions]: https://solidity.readthedocs.io/en/latest/contracts.html#fallback-function\r\n     */\r\n    function () external payable {\r\n        emit PaymentReceived(msg.sender, msg.value);\r\n    }\r\n\r\n    /**\r\n     * @dev Getter for the total shares held by payees.\r\n     */\r\n    function totalShares() public view returns (uint256) {\r\n        return _totalShares;\r\n    }\r\n\r\n    /**\r\n     * @dev Getter for the total amount of Ether already released.\r\n     */\r\n    function totalReleased() public view returns (uint256) {\r\n        return _totalReleased;\r\n    }\r\n\r\n    /**\r\n     * @dev Getter for the amount of shares held by an account.\r\n     */\r\n    function shares(address account) public view returns (uint256) {\r\n        return _shares[account];\r\n    }\r\n\r\n    /**\r\n     * @dev Getter for the amount of Ether already released to a payee.\r\n     */\r\n    function released(address account) public view returns (uint256) {\r\n        return _released[account];\r\n    }\r\n\r\n    /**\r\n     * @dev Getter for the address of the payee number `index`.\r\n     */\r\n    function payee(uint256 index) public view returns (address) {\r\n        return _payees[index];\r\n    }\r\n\r\n    /**\r\n     * @dev Triggers a transfer to `account` of the amount of Ether they are owed, according to their percentage of the\r\n     * total shares and their previous withdrawals.\r\n     */\r\n    function release(address payable account) public {\r\n        require(_shares[account] > 0, \"PaymentSplitter: account has no shares\");\r\n\r\n        uint256 totalReceived = address(this).balance.add(_totalReleased);\r\n        uint256 payment = totalReceived.mul(_shares[account]).div(_totalShares).sub(_released[account]);\r\n\r\n        require(payment != 0, \"PaymentSplitter: account is not due payment\");\r\n\r\n        _released[account] = _released[account].add(payment);\r\n        _totalReleased = _totalReleased.add(payment);\r\n\r\n        account.transfer(payment);\r\n        emit PaymentReleased(account, payment);\r\n    }\r\n\r\n    /**\r\n     * @dev Add a new payee to the contract.\r\n     * @param account The address of the payee to add.\r\n     * @param shares_ The number of shares owned by the payee.\r\n     */\r\n    function _addPayee(address account, uint256 shares_) private {\r\n        require(account != address(0), \"PaymentSplitter: account is the zero address\");\r\n        require(shares_ > 0, \"PaymentSplitter: shares are 0\");\r\n        require(_shares[account] == 0, \"PaymentSplitter: account already has shares\");\r\n\r\n        _payees.push(account);\r\n        _shares[account] = shares_;\r\n        _totalShares = _totalShares.add(shares_);\r\n        emit PayeeAdded(account, shares_);\r\n    }\r\n}\r\n",
  "sourcePath": "C:/Users/shbaid/Desktop/ownership/contracts/PaymentSplitter.sol",
  "compiler": {
    "name": "solc",
    "version": "0.5.8+commit.23d335f2.Emscripten.clang"
  },
  "schemaVersion": "3.0.10",
  "updatedAt": "2019-06-14T07:48:18.630Z",
  "devdoc": {
    "details": "This contract allows to split Ether payments among a group of accounts. The sender does not need to be aware\r that the Ether will be split in this way, since it is handled transparently by the contract.\r  * The split can be in equal parts or in any other arbitrary proportion. The way this is specified is by assigning each\r account to a number of shares. Of all the Ether that this contract receives, each account will then be able to claim\r an amount proportional to the percentage of total shares they were assigned.\r  * `PaymentSplitter` follows a _pull payment_ model. This means that payments are not automatically forwarded to the\r accounts but kept in this contract, and the actual transfer is triggered as a separate step by calling the `release`\r function.\r",
    "methods": {
      "constructor": {
        "details": "Creates an instance of `PaymentSplitter` where each account in `payees` is assigned the number of shares at\r the matching position in the `shares` array.\r      * All addresses in `payees` must be non-zero. Both arrays must have the same non-zero length, and there must be no\r duplicates in `payees`.\r"
      },
      "payee(uint256)": {
        "details": "Getter for the address of the payee number `index`.\r"
      },
      "release(address)": {
        "details": "Triggers a transfer to `account` of the amount of Ether they are owed, according to their percentage of the\r total shares and their previous withdrawals.\r"
      },
      "released(address)": {
        "details": "Getter for the amount of Ether already released to a payee.\r"
      },
      "shares(address)": {
        "details": "Getter for the amount of shares held by an account.\r"
      },
      "totalReleased()": {
        "details": "Getter for the total amount of Ether already released.\r"
      },
      "totalShares()": {
        "details": "Getter for the total shares held by payees.\r"
      }
    },
    "title": "PaymentSplitter\r"
  },
  "userdoc": {
    "methods": {}
  }
}